{
  "_format": "hh-sol-artifact-1",
  "contractName": "CampaignFactory",
  "sourceName": "contracts/CampaignFactory.sol",
  "abi": [
    {
      "inputs": [
        {
          "internalType": "address payable",
          "name": "_master",
          "type": "address"
        }
      ],
      "stateMutability": "nonpayable",
      "type": "constructor"
    },
    {
      "anonymous": false,
      "inputs": [
        {
          "indexed": false,
          "internalType": "address",
          "name": "creator",
          "type": "address"
        },
        {
          "indexed": false,
          "internalType": "address",
          "name": "newCampaign",
          "type": "address"
        }
      ],
      "name": "CampaignCreated",
      "type": "event"
    },
    {
      "inputs": [
        {
          "components": [
            {
              "internalType": "uint256",
              "name": "totalShares",
              "type": "uint256"
            },
            {
              "internalType": "bytes32",
              "name": "sharesMerkleRoot",
              "type": "bytes32"
            }
          ],
          "internalType": "struct Campaign.SharesData",
          "name": "_shares",
          "type": "tuple"
        },
        {
          "internalType": "bytes32",
          "name": "_uri",
          "type": "bytes32"
        },
        {
          "internalType": "address",
          "name": "_guardian",
          "type": "address"
        },
        {
          "internalType": "address",
          "name": "_oracle",
          "type": "address"
        },
        {
          "internalType": "bool",
          "name": "_sharesPublished",
          "type": "bool"
        },
        {
          "internalType": "uint256",
          "name": "_claimPeriodStart",
          "type": "uint256"
        },
        {
          "internalType": "bytes32",
          "name": "salt",
          "type": "bytes32"
        }
      ],
      "name": "createCampaign",
      "outputs": [],
      "stateMutability": "nonpayable",
      "type": "function"
    }
  ],
  "bytecode": "0x608060405234801561001057600080fd5b5060405161039138038061039183398101604081905261002f91610054565b600080546001600160a01b0319166001600160a01b0392909216919091179055610084565b60006020828403121561006657600080fd5b81516001600160a01b038116811461007d57600080fd5b9392505050565b6102fe806100936000396000f3fe608060405234801561001057600080fd5b506004361061002b5760003560e01c8063c2e152c414610030575b600080fd5b61004361003e36600461020c565b610045565b005b6000805461005c906001600160a01b031683610136565b60405163697302e360e11b81528951600482015260208a01516024820152604481018990526001600160a01b038881166064830152878116608483015286151560a483015260c482018690529192509082169063d2e605c69060e401600060405180830381600087803b1580156100d257600080fd5b505af11580156100e6573d6000803e3d6000fd5b5050604080513381526001600160a01b03851660208201527f6056366dba45431fd6a8854ad9f2594942b02c4f2c3f6fbc329b3079b027b8b4935001905060405180910390a15050505050505050565b6000604051733d602d80600a3d3981f3363d3d373d3d3d363d7360601b81528360601b60148201526e5af43d82803e903d91602b57fd5bf360881b6028820152826037826000f59150506001600160a01b0381166101da5760405162461bcd60e51b815260206004820152601760248201527f455243313136373a2063726561746532206661696c6564000000000000000000604482015260640160405180910390fd5b92915050565b80356001600160a01b03811681146101f757600080fd5b919050565b803580151581146101f757600080fd5b600080600080600080600087890361010081121561022957600080fd5b604081121561023757600080fd5b506040516040810181811067ffffffffffffffff8211171561026957634e487b7160e01b600052604160045260246000fd5b6040908152893582526020808b0135908301529097508801359550610290606089016101e0565b945061029e608089016101e0565b93506102ac60a089016101fc565b925060c0880135915060e088013590509295989194975092955056fea2646970667358221220ae3e5d9c48f6c1fe15757a529f59ef15d2af4177e6dd3ae132fc8f6dd6015e4764736f6c63430008060033",
  "linkReferences": {},
  "deployedLinkReferences": {}
}